{
	"contracts/votingSystem.sol": {
		"VotingSystem": {
			"abi": [
				{
					"inputs": [],
					"stateMutability": "nonpayable",
					"type": "constructor"
				},
				{
					"inputs": [
						{
							"internalType": "address",
							"name": "_candidateAddr",
							"type": "address"
						}
					],
					"name": "addCandidate",
					"outputs": [],
					"stateMutability": "nonpayable",
					"type": "function"
				},
				{
					"inputs": [
						{
							"internalType": "uint256",
							"name": "",
							"type": "uint256"
						}
					],
					"name": "candidates",
					"outputs": [
						{
							"internalType": "address",
							"name": "candidateAddr",
							"type": "address"
						},
						{
							"internalType": "uint256",
							"name": "voteCount",
							"type": "uint256"
						}
					],
					"stateMutability": "view",
					"type": "function"
				},
				{
					"inputs": [
						{
							"internalType": "address",
							"name": "_candidateAddr",
							"type": "address"
						}
					],
					"name": "getVoteCount",
					"outputs": [
						{
							"internalType": "uint256",
							"name": "candidateVoteCount",
							"type": "uint256"
						}
					],
					"stateMutability": "view",
					"type": "function"
				},
				{
					"inputs": [],
					"name": "owner",
					"outputs": [
						{
							"internalType": "address",
							"name": "",
							"type": "address"
						}
					],
					"stateMutability": "view",
					"type": "function"
				},
				{
					"inputs": [
						{
							"internalType": "address",
							"name": "_candidateAddr",
							"type": "address"
						}
					],
					"name": "vote",
					"outputs": [],
					"stateMutability": "nonpayable",
					"type": "function"
				},
				{
					"inputs": [
						{
							"internalType": "uint256",
							"name": "",
							"type": "uint256"
						}
					],
					"name": "voters",
					"outputs": [
						{
							"internalType": "address",
							"name": "",
							"type": "address"
						}
					],
					"stateMutability": "view",
					"type": "function"
				}
			],
			"devdoc": {
				"kind": "dev",
				"methods": {},
				"version": 1
			},
			"evm": {
				"assembly": "    /* \"contracts/votingSystem.sol\":61:2368  contract VotingSystem{... */\n  mstore(0x40, 0x80)\n    /* \"contracts/votingSystem.sol\":277:327  constructor(){... */\n  callvalue\n  dup1\n  iszero\n  tag_1\n  jumpi\n  revert(0x00, 0x00)\ntag_1:\n  pop\n    /* \"contracts/votingSystem.sol\":309:319  msg.sender */\n  caller\n    /* \"contracts/votingSystem.sol\":301:306  owner */\n  0x00\n  0x00\n    /* \"contracts/votingSystem.sol\":301:319  owner = msg.sender */\n  0x0100\n  exp\n  dup2\n  sload\n  dup2\n  0xffffffffffffffffffffffffffffffffffffffff\n  mul\n  not\n  and\n  swap1\n  dup4\n  0xffffffffffffffffffffffffffffffffffffffff\n  and\n  mul\n  or\n  swap1\n  sstore\n  pop\n    /* \"contracts/votingSystem.sol\":61:2368  contract VotingSystem{... */\n  dataSize(sub_0)\n  dup1\n  dataOffset(sub_0)\n  0x00\n  codecopy\n  0x00\n  return\nstop\n\nsub_0: assembly {\n        /* \"contracts/votingSystem.sol\":61:2368  contract VotingSystem{... */\n      mstore(0x40, 0x80)\n      callvalue\n      dup1\n      iszero\n      tag_1\n      jumpi\n      revert(0x00, 0x00)\n    tag_1:\n      pop\n      jumpi(tag_2, lt(calldatasize, 0x04))\n      shr(0xe0, calldataload(0x00))\n      dup1\n      0x3477ee2e\n      eq\n      tag_3\n      jumpi\n      dup1\n      0x3acd75f8\n      eq\n      tag_4\n      jumpi\n      dup1\n      0x6dd7d8ea\n      eq\n      tag_5\n      jumpi\n      dup1\n      0x8da5cb5b\n      eq\n      tag_6\n      jumpi\n      dup1\n      0xda58c7d9\n      eq\n      tag_7\n      jumpi\n      dup1\n      0xe652f4cc\n      eq\n      tag_8\n      jumpi\n    tag_2:\n      revert(0x00, 0x00)\n        /* \"contracts/votingSystem.sol\":207:236  Candidate[] public candidates */\n    tag_3:\n      tag_9\n      0x04\n      dup1\n      calldatasize\n      sub\n      dup2\n      add\n      swap1\n      tag_10\n      swap2\n      swap1\n      tag_11\n      jump\t// in\n    tag_10:\n      tag_12\n      jump\t// in\n    tag_9:\n      mload(0x40)\n      tag_13\n      swap3\n      swap2\n      swap1\n      tag_14\n      jump\t// in\n    tag_13:\n      mload(0x40)\n      dup1\n      swap2\n      sub\n      swap1\n      return\n        /* \"contracts/votingSystem.sol\":1167:1364  function addCandidate(address _candidateAddr) public validateOwner validateCandidateAddr(_candidateAddr) {... */\n    tag_4:\n      tag_15\n      0x04\n      dup1\n      calldatasize\n      sub\n      dup2\n      add\n      swap1\n      tag_16\n      swap2\n      swap1\n      tag_17\n      jump\t// in\n    tag_16:\n      tag_18\n      jump\t// in\n    tag_15:\n      stop\n        /* \"contracts/votingSystem.sol\":1372:1827  function vote(address _candidateAddr) public validateVoter {... */\n    tag_5:\n      tag_19\n      0x04\n      dup1\n      calldatasize\n      sub\n      dup2\n      add\n      swap1\n      tag_20\n      swap2\n      swap1\n      tag_17\n      jump\t// in\n    tag_20:\n      tag_21\n      jump\t// in\n    tag_19:\n      stop\n        /* \"contracts/votingSystem.sol\":89:109  address public owner */\n    tag_6:\n      tag_22\n      tag_23\n      jump\t// in\n    tag_22:\n      mload(0x40)\n      tag_24\n      swap2\n      swap1\n      tag_25\n      jump\t// in\n    tag_24:\n      mload(0x40)\n      dup1\n      swap2\n      sub\n      swap1\n      return\n        /* \"contracts/votingSystem.sol\":245:268  address[] public voters */\n    tag_7:\n      tag_26\n      0x04\n      dup1\n      calldatasize\n      sub\n      dup2\n      add\n      swap1\n      tag_27\n      swap2\n      swap1\n      tag_11\n      jump\t// in\n    tag_27:\n      tag_28\n      jump\t// in\n    tag_26:\n      mload(0x40)\n      tag_29\n      swap2\n      swap1\n      tag_25\n      jump\t// in\n    tag_29:\n      mload(0x40)\n      dup1\n      swap2\n      sub\n      swap1\n      return\n        /* \"contracts/votingSystem.sol\":1835:2363  function getVoteCount(address _candidateAddr) public validateOwner view returns(uint candidateVoteCount) {... */\n    tag_8:\n      tag_30\n      0x04\n      dup1\n      calldatasize\n      sub\n      dup2\n      add\n      swap1\n      tag_31\n      swap2\n      swap1\n      tag_17\n      jump\t// in\n    tag_31:\n      tag_32\n      jump\t// in\n    tag_30:\n      mload(0x40)\n      tag_33\n      swap2\n      swap1\n      tag_34\n      jump\t// in\n    tag_33:\n      mload(0x40)\n      dup1\n      swap2\n      sub\n      swap1\n      return\n        /* \"contracts/votingSystem.sol\":207:236  Candidate[] public candidates */\n    tag_12:\n      0x01\n      dup2\n      dup2\n      sload\n      dup2\n      lt\n      tag_35\n      jumpi\n      0x00\n      dup1\n      revert\n    tag_35:\n      swap1\n      0x00\n      mstore\n      keccak256(0x00, 0x20)\n      swap1\n      0x02\n      mul\n      add\n      0x00\n      swap2\n      pop\n      swap1\n      pop\n      dup1\n      0x00\n      add\n      0x00\n      swap1\n      sload\n      swap1\n      0x0100\n      exp\n      swap1\n      div\n      0xffffffffffffffffffffffffffffffffffffffff\n      and\n      swap1\n      dup1\n      0x01\n      add\n      sload\n      swap1\n      pop\n      dup3\n      jump\t// out\n        /* \"contracts/votingSystem.sol\":1167:1364  function addCandidate(address _candidateAddr) public validateOwner validateCandidateAddr(_candidateAddr) {... */\n    tag_18:\n        /* \"contracts/votingSystem.sol\":393:398  owner */\n      0x00\n      0x00\n      swap1\n      sload\n      swap1\n      0x0100\n      exp\n      swap1\n      div\n      0xffffffffffffffffffffffffffffffffffffffff\n      and\n        /* \"contracts/votingSystem.sol\":379:398  msg.sender == owner */\n      0xffffffffffffffffffffffffffffffffffffffff\n      and\n        /* \"contracts/votingSystem.sol\":379:389  msg.sender */\n      caller\n        /* \"contracts/votingSystem.sol\":379:398  msg.sender == owner */\n      0xffffffffffffffffffffffffffffffffffffffff\n      and\n      eq\n        /* \"contracts/votingSystem.sol\":371:412  require(msg.sender == owner, \"Not Owner\") */\n      tag_38\n      jumpi\n      mload(0x40)\n      0x08c379a000000000000000000000000000000000000000000000000000000000\n      dup2\n      mstore\n      0x04\n      add\n      tag_39\n      swap1\n      tag_40\n      jump\t// in\n    tag_39:\n      mload(0x40)\n      dup1\n      swap2\n      sub\n      swap1\n      revert\n    tag_38:\n        /* \"contracts/votingSystem.sol\":1256:1270  _candidateAddr */\n      dup1\n        /* \"contracts/votingSystem.sol\":506:523  bool alreadyAdded */\n      0x00\n        /* \"contracts/votingSystem.sol\":526:531  false */\n      0x00\n        /* \"contracts/votingSystem.sol\":506:531  bool alreadyAdded = false */\n      swap1\n      pop\n        /* \"contracts/votingSystem.sol\":549:555  uint i */\n      0x00\n        /* \"contracts/votingSystem.sol\":556:557  0 */\n      0x00\n        /* \"contracts/votingSystem.sol\":549:557  uint i=0 */\n      swap1\n      pop\n        /* \"contracts/votingSystem.sol\":544:738  for (uint i=0; i<candidates.length; i++){... */\n    tag_42:\n        /* \"contracts/votingSystem.sol\":561:571  candidates */\n      0x01\n        /* \"contracts/votingSystem.sol\":561:578  candidates.length */\n      dup1\n      sload\n      swap1\n      pop\n        /* \"contracts/votingSystem.sol\":559:560  i */\n      dup2\n        /* \"contracts/votingSystem.sol\":559:578  i<candidates.length */\n      lt\n        /* \"contracts/votingSystem.sol\":544:738  for (uint i=0; i<candidates.length; i++){... */\n      iszero\n      tag_43\n      jumpi\n        /* \"contracts/votingSystem.sol\":634:648  _candidateAddr */\n      dup3\n        /* \"contracts/votingSystem.sol\":603:648  candidates[i].candidateAddr == _candidateAddr */\n      0xffffffffffffffffffffffffffffffffffffffff\n      and\n        /* \"contracts/votingSystem.sol\":603:613  candidates */\n      0x01\n        /* \"contracts/votingSystem.sol\":614:615  i */\n      dup3\n        /* \"contracts/votingSystem.sol\":603:616  candidates[i] */\n      dup2\n      sload\n      dup2\n      lt\n      tag_45\n      jumpi\n      tag_46\n      tag_47\n      jump\t// in\n    tag_46:\n    tag_45:\n      swap1\n      0x00\n      mstore\n      keccak256(0x00, 0x20)\n      swap1\n      0x02\n      mul\n      add\n        /* \"contracts/votingSystem.sol\":603:630  candidates[i].candidateAddr */\n      0x00\n      add\n      0x00\n      swap1\n      sload\n      swap1\n      0x0100\n      exp\n      swap1\n      div\n      0xffffffffffffffffffffffffffffffffffffffff\n      and\n        /* \"contracts/votingSystem.sol\":603:648  candidates[i].candidateAddr == _candidateAddr */\n      0xffffffffffffffffffffffffffffffffffffffff\n      and\n      sub\n        /* \"contracts/votingSystem.sol\":599:727  if (candidates[i].candidateAddr == _candidateAddr){... */\n      tag_49\n      jumpi\n        /* \"contracts/votingSystem.sol\":683:687  true */\n      0x01\n        /* \"contracts/votingSystem.sol\":668:687  alreadyAdded = true */\n      swap2\n      pop\n        /* \"contracts/votingSystem.sol\":706:711  break */\n      jump(tag_43)\n        /* \"contracts/votingSystem.sol\":599:727  if (candidates[i].candidateAddr == _candidateAddr){... */\n    tag_49:\n        /* \"contracts/votingSystem.sol\":580:583  i++ */\n      dup1\n      dup1\n      0x01\n      add\n      swap2\n      pop\n      pop\n        /* \"contracts/votingSystem.sol\":544:738  for (uint i=0; i<candidates.length; i++){... */\n      jump(tag_42)\n    tag_43:\n      pop\n        /* \"contracts/votingSystem.sol\":759:771  alreadyAdded */\n      dup1\n        /* \"contracts/votingSystem.sol\":758:771  !alreadyAdded */\n      iszero\n        /* \"contracts/votingSystem.sol\":750:799  require(!alreadyAdded, \"Candidate Already Added\") */\n      tag_50\n      jumpi\n      mload(0x40)\n      0x08c379a000000000000000000000000000000000000000000000000000000000\n      dup2\n      mstore\n      0x04\n      add\n      tag_51\n      swap1\n      tag_52\n      jump\t// in\n    tag_51:\n      mload(0x40)\n      dup1\n      swap2\n      sub\n      swap1\n      revert\n    tag_50:\n        /* \"contracts/votingSystem.sol\":1283:1293  candidates */\n      0x01\n        /* \"contracts/votingSystem.sol\":1299:1355  Candidate({candidateAddr: _candidateAddr, voteCount: 0}) */\n      mload(0x40)\n      dup1\n      0x40\n      add\n      0x40\n      mstore\n      dup1\n        /* \"contracts/votingSystem.sol\":1325:1339  _candidateAddr */\n      dup6\n        /* \"contracts/votingSystem.sol\":1299:1355  Candidate({candidateAddr: _candidateAddr, voteCount: 0}) */\n      0xffffffffffffffffffffffffffffffffffffffff\n      and\n      dup2\n      mstore\n      0x20\n      add\n        /* \"contracts/votingSystem.sol\":1352:1353  0 */\n      0x00\n        /* \"contracts/votingSystem.sol\":1299:1355  Candidate({candidateAddr: _candidateAddr, voteCount: 0}) */\n      dup2\n      mstore\n      pop\n        /* \"contracts/votingSystem.sol\":1283:1356  candidates.push(Candidate({candidateAddr: _candidateAddr, voteCount: 0})) */\n      swap1\n      dup1\n      0x01\n      dup2\n      sload\n      add\n      dup1\n      dup3\n      sstore\n      dup1\n      swap2\n      pop\n      pop\n      0x01\n      swap1\n      sub\n      swap1\n      0x00\n      mstore\n      keccak256(0x00, 0x20)\n      swap1\n      0x02\n      mul\n      add\n      0x00\n      swap1\n      swap2\n      swap1\n      swap2\n      swap1\n      swap2\n      pop\n      0x00\n      dup3\n      add\n      mload\n      dup2\n      0x00\n      add\n      exp(0x0100, 0x00)\n      dup2\n      sload\n      dup2\n      0xffffffffffffffffffffffffffffffffffffffff\n      mul\n      not\n      and\n      swap1\n      dup4\n      0xffffffffffffffffffffffffffffffffffffffff\n      and\n      mul\n      or\n      swap1\n      sstore\n      pop\n      0x20\n      dup3\n      add\n      mload\n      dup2\n      0x01\n      add\n      sstore\n      pop\n      pop\n        /* \"contracts/votingSystem.sol\":495:819  {... */\n      pop\n        /* \"contracts/votingSystem.sol\":423:424  _ */\n      pop\n        /* \"contracts/votingSystem.sol\":1167:1364  function addCandidate(address _candidateAddr) public validateOwner validateCandidateAddr(_candidateAddr) {... */\n      pop\n      jump\t// out\n        /* \"contracts/votingSystem.sol\":1372:1827  function vote(address _candidateAddr) public validateVoter {... */\n    tag_21:\n        /* \"contracts/votingSystem.sol\":863:880  bool alreadyVoted */\n      0x00\n        /* \"contracts/votingSystem.sol\":883:888  false */\n      0x00\n        /* \"contracts/votingSystem.sol\":863:888  bool alreadyVoted = false */\n      swap1\n      pop\n        /* \"contracts/votingSystem.sol\":905:911  uint i */\n      0x00\n        /* \"contracts/votingSystem.sol\":912:913  0 */\n      0x00\n        /* \"contracts/votingSystem.sol\":905:913  uint i=0 */\n      swap1\n      pop\n        /* \"contracts/votingSystem.sol\":901:1068  for(uint i=0; i<voters.length; i++){... */\n    tag_56:\n        /* \"contracts/votingSystem.sol\":917:923  voters */\n      0x02\n        /* \"contracts/votingSystem.sol\":917:930  voters.length */\n      dup1\n      sload\n      swap1\n      pop\n        /* \"contracts/votingSystem.sol\":915:916  i */\n      dup2\n        /* \"contracts/votingSystem.sol\":915:930  i<voters.length */\n      lt\n        /* \"contracts/votingSystem.sol\":901:1068  for(uint i=0; i<voters.length; i++){... */\n      iszero\n      tag_57\n      jumpi\n        /* \"contracts/votingSystem.sol\":968:978  msg.sender */\n      caller\n        /* \"contracts/votingSystem.sol\":955:978  voters[i] == msg.sender */\n      0xffffffffffffffffffffffffffffffffffffffff\n      and\n        /* \"contracts/votingSystem.sol\":955:961  voters */\n      0x02\n        /* \"contracts/votingSystem.sol\":962:963  i */\n      dup3\n        /* \"contracts/votingSystem.sol\":955:964  voters[i] */\n      dup2\n      sload\n      dup2\n      lt\n      tag_59\n      jumpi\n      tag_60\n      tag_47\n      jump\t// in\n    tag_60:\n    tag_59:\n      swap1\n      0x00\n      mstore\n      keccak256(0x00, 0x20)\n      add\n      0x00\n      swap1\n      sload\n      swap1\n      0x0100\n      exp\n      swap1\n      div\n      0xffffffffffffffffffffffffffffffffffffffff\n      and\n        /* \"contracts/votingSystem.sol\":955:978  voters[i] == msg.sender */\n      0xffffffffffffffffffffffffffffffffffffffff\n      and\n      sub\n        /* \"contracts/votingSystem.sol\":951:1057  if (voters[i] == msg.sender){... */\n      tag_62\n      jumpi\n        /* \"contracts/votingSystem.sol\":1013:1017  true */\n      0x01\n        /* \"contracts/votingSystem.sol\":998:1017  alreadyVoted = true */\n      swap2\n      pop\n        /* \"contracts/votingSystem.sol\":1036:1041  break */\n      jump(tag_57)\n        /* \"contracts/votingSystem.sol\":951:1057  if (voters[i] == msg.sender){... */\n    tag_62:\n        /* \"contracts/votingSystem.sol\":932:935  i++ */\n      dup1\n      dup1\n      0x01\n      add\n      swap2\n      pop\n      pop\n        /* \"contracts/votingSystem.sol\":901:1068  for(uint i=0; i<voters.length; i++){... */\n      jump(tag_56)\n    tag_57:\n      pop\n        /* \"contracts/votingSystem.sol\":1089:1101  alreadyVoted */\n      dup1\n        /* \"contracts/votingSystem.sol\":1088:1101  !alreadyVoted */\n      iszero\n        /* \"contracts/votingSystem.sol\":1080:1139  require(!alreadyVoted, \"You have already given your vote.\") */\n      tag_63\n      jumpi\n      mload(0x40)\n      0x08c379a000000000000000000000000000000000000000000000000000000000\n      dup2\n      mstore\n      0x04\n      add\n      tag_64\n      swap1\n      tag_65\n      jump\t// in\n    tag_64:\n      mload(0x40)\n      dup1\n      swap2\n      sub\n      swap1\n      revert\n    tag_63:\n        /* \"contracts/votingSystem.sol\":1442:1461  bool candidateFound */\n      0x00\n        /* \"contracts/votingSystem.sol\":1464:1469  false */\n      0x00\n        /* \"contracts/votingSystem.sol\":1442:1469  bool candidateFound = false */\n      swap1\n      pop\n        /* \"contracts/votingSystem.sol\":1486:1492  uint i */\n      0x00\n        /* \"contracts/votingSystem.sol\":1493:1494  0 */\n      0x00\n        /* \"contracts/votingSystem.sol\":1486:1494  uint i=0 */\n      swap1\n      pop\n        /* \"contracts/votingSystem.sol\":1482:1724  for(uint i=0; i<candidates.length; i++){... */\n    tag_67:\n        /* \"contracts/votingSystem.sol\":1498:1508  candidates */\n      0x01\n        /* \"contracts/votingSystem.sol\":1498:1515  candidates.length */\n      dup1\n      sload\n      swap1\n      pop\n        /* \"contracts/votingSystem.sol\":1496:1497  i */\n      dup2\n        /* \"contracts/votingSystem.sol\":1496:1515  i<candidates.length */\n      lt\n        /* \"contracts/votingSystem.sol\":1482:1724  for(uint i=0; i<candidates.length; i++){... */\n      iszero\n      tag_68\n      jumpi\n        /* \"contracts/votingSystem.sol\":1571:1585  _candidateAddr */\n      dup4\n        /* \"contracts/votingSystem.sol\":1540:1585  candidates[i].candidateAddr == _candidateAddr */\n      0xffffffffffffffffffffffffffffffffffffffff\n      and\n        /* \"contracts/votingSystem.sol\":1540:1550  candidates */\n      0x01\n        /* \"contracts/votingSystem.sol\":1551:1552  i */\n      dup3\n        /* \"contracts/votingSystem.sol\":1540:1553  candidates[i] */\n      dup2\n      sload\n      dup2\n      lt\n      tag_70\n      jumpi\n      tag_71\n      tag_47\n      jump\t// in\n    tag_71:\n    tag_70:\n      swap1\n      0x00\n      mstore\n      keccak256(0x00, 0x20)\n      swap1\n      0x02\n      mul\n      add\n        /* \"contracts/votingSystem.sol\":1540:1567  candidates[i].candidateAddr */\n      0x00\n      add\n      0x00\n      swap1\n      sload\n      swap1\n      0x0100\n      exp\n      swap1\n      div\n      0xffffffffffffffffffffffffffffffffffffffff\n      and\n        /* \"contracts/votingSystem.sol\":1540:1585  candidates[i].candidateAddr == _candidateAddr */\n      0xffffffffffffffffffffffffffffffffffffffff\n      and\n      sub\n        /* \"contracts/votingSystem.sol\":1536:1713  if (candidates[i].candidateAddr == _candidateAddr){... */\n      tag_73\n      jumpi\n        /* \"contracts/votingSystem.sol\":1632:1633  1 */\n      0x01\n        /* \"contracts/votingSystem.sol\":1605:1615  candidates */\n      dup1\n        /* \"contracts/votingSystem.sol\":1616:1617  i */\n      dup3\n        /* \"contracts/votingSystem.sol\":1605:1618  candidates[i] */\n      dup2\n      sload\n      dup2\n      lt\n      tag_74\n      jumpi\n      tag_75\n      tag_47\n      jump\t// in\n    tag_75:\n    tag_74:\n      swap1\n      0x00\n      mstore\n      keccak256(0x00, 0x20)\n      swap1\n      0x02\n      mul\n      add\n        /* \"contracts/votingSystem.sol\":1605:1628  candidates[i].voteCount */\n      0x01\n      add\n      0x00\n        /* \"contracts/votingSystem.sol\":1605:1633  candidates[i].voteCount += 1 */\n      dup3\n      dup3\n      sload\n      tag_77\n      swap2\n      swap1\n      tag_78\n      jump\t// in\n    tag_77:\n      swap3\n      pop\n      pop\n      dup2\n      swap1\n      sstore\n      pop\n        /* \"contracts/votingSystem.sol\":1669:1673  true */\n      0x01\n        /* \"contracts/votingSystem.sol\":1652:1673  candidateFound = true */\n      swap2\n      pop\n        /* \"contracts/votingSystem.sol\":1692:1697  break */\n      jump(tag_68)\n        /* \"contracts/votingSystem.sol\":1536:1713  if (candidates[i].candidateAddr == _candidateAddr){... */\n    tag_73:\n        /* \"contracts/votingSystem.sol\":1517:1520  i++ */\n      dup1\n      dup1\n      0x01\n      add\n      swap2\n      pop\n      pop\n        /* \"contracts/votingSystem.sol\":1482:1724  for(uint i=0; i<candidates.length; i++){... */\n      jump(tag_67)\n    tag_68:\n      pop\n        /* \"contracts/votingSystem.sol\":1744:1758  candidateFound */\n      dup1\n        /* \"contracts/votingSystem.sol\":1736:1783  require(candidateFound, \"Candidate not found!\") */\n      tag_79\n      jumpi\n      mload(0x40)\n      0x08c379a000000000000000000000000000000000000000000000000000000000\n      dup2\n      mstore\n      0x04\n      add\n      tag_80\n      swap1\n      tag_81\n      jump\t// in\n    tag_80:\n      mload(0x40)\n      dup1\n      swap2\n      sub\n      swap1\n      revert\n    tag_79:\n        /* \"contracts/votingSystem.sol\":1796:1802  voters */\n      0x02\n        /* \"contracts/votingSystem.sol\":1808:1818  msg.sender */\n      caller\n        /* \"contracts/votingSystem.sol\":1796:1819  voters.push(msg.sender) */\n      swap1\n      dup1\n      0x01\n      dup2\n      sload\n      add\n      dup1\n      dup3\n      sstore\n      dup1\n      swap2\n      pop\n      pop\n      0x01\n      swap1\n      sub\n      swap1\n      0x00\n      mstore\n      keccak256(0x00, 0x20)\n      add\n      0x00\n      swap1\n      swap2\n      swap1\n      swap2\n      swap1\n      swap2\n      0x0100\n      exp\n      dup2\n      sload\n      dup2\n      0xffffffffffffffffffffffffffffffffffffffff\n      mul\n      not\n      and\n      swap1\n      dup4\n      0xffffffffffffffffffffffffffffffffffffffff\n      and\n      mul\n      or\n      swap1\n      sstore\n      pop\n        /* \"contracts/votingSystem.sol\":1431:1827  {... */\n      pop\n        /* \"contracts/votingSystem.sol\":852:1159  {... */\n      pop\n        /* \"contracts/votingSystem.sol\":1372:1827  function vote(address _candidateAddr) public validateVoter {... */\n      pop\n      jump\t// out\n        /* \"contracts/votingSystem.sol\":89:109  address public owner */\n    tag_23:\n      0x00\n      0x00\n      swap1\n      sload\n      swap1\n      0x0100\n      exp\n      swap1\n      div\n      0xffffffffffffffffffffffffffffffffffffffff\n      and\n      dup2\n      jump\t// out\n        /* \"contracts/votingSystem.sol\":245:268  address[] public voters */\n    tag_28:\n      0x02\n      dup2\n      dup2\n      sload\n      dup2\n      lt\n      tag_83\n      jumpi\n      0x00\n      dup1\n      revert\n    tag_83:\n      swap1\n      0x00\n      mstore\n      keccak256(0x00, 0x20)\n      add\n      0x00\n      swap2\n      pop\n      sload\n      swap1\n      0x0100\n      exp\n      swap1\n      div\n      0xffffffffffffffffffffffffffffffffffffffff\n      and\n      dup2\n      jump\t// out\n        /* \"contracts/votingSystem.sol\":1835:2363  function getVoteCount(address _candidateAddr) public validateOwner view returns(uint candidateVoteCount) {... */\n    tag_32:\n        /* \"contracts/votingSystem.sol\":1915:1938  uint candidateVoteCount */\n      0x00\n        /* \"contracts/votingSystem.sol\":393:398  owner */\n      0x00\n      0x00\n      swap1\n      sload\n      swap1\n      0x0100\n      exp\n      swap1\n      div\n      0xffffffffffffffffffffffffffffffffffffffff\n      and\n        /* \"contracts/votingSystem.sol\":379:398  msg.sender == owner */\n      0xffffffffffffffffffffffffffffffffffffffff\n      and\n        /* \"contracts/votingSystem.sol\":379:389  msg.sender */\n      caller\n        /* \"contracts/votingSystem.sol\":379:398  msg.sender == owner */\n      0xffffffffffffffffffffffffffffffffffffffff\n      and\n      eq\n        /* \"contracts/votingSystem.sol\":371:412  require(msg.sender == owner, \"Not Owner\") */\n      tag_86\n      jumpi\n      mload(0x40)\n      0x08c379a000000000000000000000000000000000000000000000000000000000\n      dup2\n      mstore\n      0x04\n      add\n      tag_87\n      swap1\n      tag_40\n      jump\t// in\n    tag_87:\n      mload(0x40)\n      dup1\n      swap2\n      sub\n      swap1\n      revert\n    tag_86:\n        /* \"contracts/votingSystem.sol\":1951:1970  bool candidateFound */\n      0x00\n        /* \"contracts/votingSystem.sol\":1973:1978  false */\n      0x00\n        /* \"contracts/votingSystem.sol\":1951:1978  bool candidateFound = false */\n      swap1\n      pop\n        /* \"contracts/votingSystem.sol\":1996:2002  uint i */\n      0x00\n        /* \"contracts/votingSystem.sol\":2003:2004  0 */\n      0x00\n        /* \"contracts/votingSystem.sol\":1996:2004  uint i=0 */\n      swap1\n      pop\n        /* \"contracts/votingSystem.sol\":1991:2250  for (uint i=0; i<candidates.length; i++){... */\n    tag_89:\n        /* \"contracts/votingSystem.sol\":2008:2018  candidates */\n      0x01\n        /* \"contracts/votingSystem.sol\":2008:2025  candidates.length */\n      dup1\n      sload\n      swap1\n      pop\n        /* \"contracts/votingSystem.sol\":2006:2007  i */\n      dup2\n        /* \"contracts/votingSystem.sol\":2006:2025  i<candidates.length */\n      lt\n        /* \"contracts/votingSystem.sol\":1991:2250  for (uint i=0; i<candidates.length; i++){... */\n      iszero\n      tag_90\n      jumpi\n        /* \"contracts/votingSystem.sol\":2081:2095  _candidateAddr */\n      dup4\n        /* \"contracts/votingSystem.sol\":2050:2095  candidates[i].candidateAddr == _candidateAddr */\n      0xffffffffffffffffffffffffffffffffffffffff\n      and\n        /* \"contracts/votingSystem.sol\":2050:2060  candidates */\n      0x01\n        /* \"contracts/votingSystem.sol\":2061:2062  i */\n      dup3\n        /* \"contracts/votingSystem.sol\":2050:2063  candidates[i] */\n      dup2\n      sload\n      dup2\n      lt\n      tag_92\n      jumpi\n      tag_93\n      tag_47\n      jump\t// in\n    tag_93:\n    tag_92:\n      swap1\n      0x00\n      mstore\n      keccak256(0x00, 0x20)\n      swap1\n      0x02\n      mul\n      add\n        /* \"contracts/votingSystem.sol\":2050:2077  candidates[i].candidateAddr */\n      0x00\n      add\n      0x00\n      swap1\n      sload\n      swap1\n      0x0100\n      exp\n      swap1\n      div\n      0xffffffffffffffffffffffffffffffffffffffff\n      and\n        /* \"contracts/votingSystem.sol\":2050:2095  candidates[i].candidateAddr == _candidateAddr */\n      0xffffffffffffffffffffffffffffffffffffffff\n      and\n      sub\n        /* \"contracts/votingSystem.sol\":2046:2239  if (candidates[i].candidateAddr == _candidateAddr){... */\n      tag_95\n      jumpi\n        /* \"contracts/votingSystem.sol\":2136:2146  candidates */\n      0x01\n        /* \"contracts/votingSystem.sol\":2147:2148  i */\n      dup2\n        /* \"contracts/votingSystem.sol\":2136:2149  candidates[i] */\n      dup2\n      sload\n      dup2\n      lt\n      tag_96\n      jumpi\n      tag_97\n      tag_47\n      jump\t// in\n    tag_97:\n    tag_96:\n      swap1\n      0x00\n      mstore\n      keccak256(0x00, 0x20)\n      swap1\n      0x02\n      mul\n      add\n        /* \"contracts/votingSystem.sol\":2136:2159  candidates[i].voteCount */\n      0x01\n      add\n      sload\n        /* \"contracts/votingSystem.sol\":2115:2159  candidateVoteCount = candidates[i].voteCount */\n      swap3\n      pop\n        /* \"contracts/votingSystem.sol\":2195:2199  true */\n      0x01\n        /* \"contracts/votingSystem.sol\":2178:2199  candidateFound = true */\n      swap2\n      pop\n        /* \"contracts/votingSystem.sol\":2218:2223  break */\n      jump(tag_90)\n        /* \"contracts/votingSystem.sol\":2046:2239  if (candidates[i].candidateAddr == _candidateAddr){... */\n    tag_95:\n        /* \"contracts/votingSystem.sol\":2027:2030  i++ */\n      dup1\n      dup1\n      0x01\n      add\n      swap2\n      pop\n      pop\n        /* \"contracts/votingSystem.sol\":1991:2250  for (uint i=0; i<candidates.length; i++){... */\n      jump(tag_89)\n    tag_90:\n      pop\n        /* \"contracts/votingSystem.sol\":2270:2284  candidateFound */\n      dup1\n        /* \"contracts/votingSystem.sol\":2262:2309  require(candidateFound, \"Candidate not found!\") */\n      tag_99\n      jumpi\n      mload(0x40)\n      0x08c379a000000000000000000000000000000000000000000000000000000000\n      dup2\n      mstore\n      0x04\n      add\n      tag_100\n      swap1\n      tag_81\n      jump\t// in\n    tag_100:\n      mload(0x40)\n      dup1\n      swap2\n      sub\n      swap1\n      revert\n    tag_99:\n        /* \"contracts/votingSystem.sol\":2330:2355  return candidateVoteCount */\n      pop\n        /* \"contracts/votingSystem.sol\":1835:2363  function getVoteCount(address _candidateAddr) public validateOwner view returns(uint candidateVoteCount) {... */\n      swap2\n      swap1\n      pop\n      jump\t// out\n        /* \"#utility.yul\":88:205   */\n    tag_102:\n        /* \"#utility.yul\":197:198   */\n      0x00\n        /* \"#utility.yul\":194:195   */\n      0x00\n        /* \"#utility.yul\":187:199   */\n      revert\n        /* \"#utility.yul\":334:411   */\n    tag_104:\n        /* \"#utility.yul\":371:378   */\n      0x00\n        /* \"#utility.yul\":400:405   */\n      dup2\n        /* \"#utility.yul\":389:405   */\n      swap1\n      pop\n        /* \"#utility.yul\":334:411   */\n      swap2\n      swap1\n      pop\n      jump\t// out\n        /* \"#utility.yul\":417:539   */\n    tag_105:\n        /* \"#utility.yul\":490:514   */\n      tag_129\n        /* \"#utility.yul\":508:513   */\n      dup2\n        /* \"#utility.yul\":490:514   */\n      tag_104\n      jump\t// in\n    tag_129:\n        /* \"#utility.yul\":483:488   */\n      dup2\n        /* \"#utility.yul\":480:515   */\n      eq\n        /* \"#utility.yul\":470:533   */\n      tag_130\n      jumpi\n        /* \"#utility.yul\":529:530   */\n      0x00\n        /* \"#utility.yul\":526:527   */\n      0x00\n        /* \"#utility.yul\":519:531   */\n      revert\n        /* \"#utility.yul\":470:533   */\n    tag_130:\n        /* \"#utility.yul\":417:539   */\n      pop\n      jump\t// out\n        /* \"#utility.yul\":545:684   */\n    tag_106:\n        /* \"#utility.yul\":591:596   */\n      0x00\n        /* \"#utility.yul\":629:635   */\n      dup2\n        /* \"#utility.yul\":616:636   */\n      calldataload\n        /* \"#utility.yul\":607:636   */\n      swap1\n      pop\n        /* \"#utility.yul\":645:678   */\n      tag_132\n        /* \"#utility.yul\":672:677   */\n      dup2\n        /* \"#utility.yul\":645:678   */\n      tag_105\n      jump\t// in\n    tag_132:\n        /* \"#utility.yul\":545:684   */\n      swap3\n      swap2\n      pop\n      pop\n      jump\t// out\n        /* \"#utility.yul\":690:1019   */\n    tag_11:\n        /* \"#utility.yul\":749:755   */\n      0x00\n        /* \"#utility.yul\":798:800   */\n      0x20\n        /* \"#utility.yul\":786:795   */\n      dup3\n        /* \"#utility.yul\":777:784   */\n      dup5\n        /* \"#utility.yul\":773:796   */\n      sub\n        /* \"#utility.yul\":769:801   */\n      slt\n        /* \"#utility.yul\":766:885   */\n      iszero\n      tag_134\n      jumpi\n        /* \"#utility.yul\":804:883   */\n      tag_135\n      tag_102\n      jump\t// in\n    tag_135:\n        /* \"#utility.yul\":766:885   */\n    tag_134:\n        /* \"#utility.yul\":924:925   */\n      0x00\n        /* \"#utility.yul\":949:1002   */\n      tag_136\n        /* \"#utility.yul\":994:1001   */\n      dup5\n        /* \"#utility.yul\":985:991   */\n      dup3\n        /* \"#utility.yul\":974:983   */\n      dup6\n        /* \"#utility.yul\":970:992   */\n      add\n        /* \"#utility.yul\":949:1002   */\n      tag_106\n      jump\t// in\n    tag_136:\n        /* \"#utility.yul\":939:1002   */\n      swap2\n      pop\n        /* \"#utility.yul\":895:1012   */\n      pop\n        /* \"#utility.yul\":690:1019   */\n      swap3\n      swap2\n      pop\n      pop\n      jump\t// out\n        /* \"#utility.yul\":1025:1151   */\n    tag_107:\n        /* \"#utility.yul\":1062:1069   */\n      0x00\n        /* \"#utility.yul\":1102:1144   */\n      0xffffffffffffffffffffffffffffffffffffffff\n        /* \"#utility.yul\":1095:1100   */\n      dup3\n        /* \"#utility.yul\":1091:1145   */\n      and\n        /* \"#utility.yul\":1080:1145   */\n      swap1\n      pop\n        /* \"#utility.yul\":1025:1151   */\n      swap2\n      swap1\n      pop\n      jump\t// out\n        /* \"#utility.yul\":1157:1253   */\n    tag_108:\n        /* \"#utility.yul\":1194:1201   */\n      0x00\n        /* \"#utility.yul\":1223:1247   */\n      tag_139\n        /* \"#utility.yul\":1241:1246   */\n      dup3\n        /* \"#utility.yul\":1223:1247   */\n      tag_107\n      jump\t// in\n    tag_139:\n        /* \"#utility.yul\":1212:1247   */\n      swap1\n      pop\n        /* \"#utility.yul\":1157:1253   */\n      swap2\n      swap1\n      pop\n      jump\t// out\n        /* \"#utility.yul\":1259:1377   */\n    tag_109:\n        /* \"#utility.yul\":1346:1370   */\n      tag_141\n        /* \"#utility.yul\":1364:1369   */\n      dup2\n        /* \"#utility.yul\":1346:1370   */\n      tag_108\n      jump\t// in\n    tag_141:\n        /* \"#utility.yul\":1341:1344   */\n      dup3\n        /* \"#utility.yul\":1334:1371   */\n      mstore\n        /* \"#utility.yul\":1259:1377   */\n      pop\n      pop\n      jump\t// out\n        /* \"#utility.yul\":1383:1501   */\n    tag_110:\n        /* \"#utility.yul\":1470:1494   */\n      tag_143\n        /* \"#utility.yul\":1488:1493   */\n      dup2\n        /* \"#utility.yul\":1470:1494   */\n      tag_104\n      jump\t// in\n    tag_143:\n        /* \"#utility.yul\":1465:1468   */\n      dup3\n        /* \"#utility.yul\":1458:1495   */\n      mstore\n        /* \"#utility.yul\":1383:1501   */\n      pop\n      pop\n      jump\t// out\n        /* \"#utility.yul\":1507:1839   */\n    tag_14:\n        /* \"#utility.yul\":1628:1632   */\n      0x00\n        /* \"#utility.yul\":1666:1668   */\n      0x40\n        /* \"#utility.yul\":1655:1664   */\n      dup3\n        /* \"#utility.yul\":1651:1669   */\n      add\n        /* \"#utility.yul\":1643:1669   */\n      swap1\n      pop\n        /* \"#utility.yul\":1679:1750   */\n      tag_145\n        /* \"#utility.yul\":1747:1748   */\n      0x00\n        /* \"#utility.yul\":1736:1745   */\n      dup4\n        /* \"#utility.yul\":1732:1749   */\n      add\n        /* \"#utility.yul\":1723:1729   */\n      dup6\n        /* \"#utility.yul\":1679:1750   */\n      tag_109\n      jump\t// in\n    tag_145:\n        /* \"#utility.yul\":1760:1832   */\n      tag_146\n        /* \"#utility.yul\":1828:1830   */\n      0x20\n        /* \"#utility.yul\":1817:1826   */\n      dup4\n        /* \"#utility.yul\":1813:1831   */\n      add\n        /* \"#utility.yul\":1804:1810   */\n      dup5\n        /* \"#utility.yul\":1760:1832   */\n      tag_110\n      jump\t// in\n    tag_146:\n        /* \"#utility.yul\":1507:1839   */\n      swap4\n      swap3\n      pop\n      pop\n      pop\n      jump\t// out\n        /* \"#utility.yul\":1845:1967   */\n    tag_111:\n        /* \"#utility.yul\":1918:1942   */\n      tag_148\n        /* \"#utility.yul\":1936:1941   */\n      dup2\n        /* \"#utility.yul\":1918:1942   */\n      tag_108\n      jump\t// in\n    tag_148:\n        /* \"#utility.yul\":1911:1916   */\n      dup2\n        /* \"#utility.yul\":1908:1943   */\n      eq\n        /* \"#utility.yul\":1898:1961   */\n      tag_149\n      jumpi\n        /* \"#utility.yul\":1957:1958   */\n      0x00\n        /* \"#utility.yul\":1954:1955   */\n      0x00\n        /* \"#utility.yul\":1947:1959   */\n      revert\n        /* \"#utility.yul\":1898:1961   */\n    tag_149:\n        /* \"#utility.yul\":1845:1967   */\n      pop\n      jump\t// out\n        /* \"#utility.yul\":1973:2112   */\n    tag_112:\n        /* \"#utility.yul\":2019:2024   */\n      0x00\n        /* \"#utility.yul\":2057:2063   */\n      dup2\n        /* \"#utility.yul\":2044:2064   */\n      calldataload\n        /* \"#utility.yul\":2035:2064   */\n      swap1\n      pop\n        /* \"#utility.yul\":2073:2106   */\n      tag_151\n        /* \"#utility.yul\":2100:2105   */\n      dup2\n        /* \"#utility.yul\":2073:2106   */\n      tag_111\n      jump\t// in\n    tag_151:\n        /* \"#utility.yul\":1973:2112   */\n      swap3\n      swap2\n      pop\n      pop\n      jump\t// out\n        /* \"#utility.yul\":2118:2447   */\n    tag_17:\n        /* \"#utility.yul\":2177:2183   */\n      0x00\n        /* \"#utility.yul\":2226:2228   */\n      0x20\n        /* \"#utility.yul\":2214:2223   */\n      dup3\n        /* \"#utility.yul\":2205:2212   */\n      dup5\n        /* \"#utility.yul\":2201:2224   */\n      sub\n        /* \"#utility.yul\":2197:2229   */\n      slt\n        /* \"#utility.yul\":2194:2313   */\n      iszero\n      tag_153\n      jumpi\n        /* \"#utility.yul\":2232:2311   */\n      tag_154\n      tag_102\n      jump\t// in\n    tag_154:\n        /* \"#utility.yul\":2194:2313   */\n    tag_153:\n        /* \"#utility.yul\":2352:2353   */\n      0x00\n        /* \"#utility.yul\":2377:2430   */\n      tag_155\n        /* \"#utility.yul\":2422:2429   */\n      dup5\n        /* \"#utility.yul\":2413:2419   */\n      dup3\n        /* \"#utility.yul\":2402:2411   */\n      dup6\n        /* \"#utility.yul\":2398:2420   */\n      add\n        /* \"#utility.yul\":2377:2430   */\n      tag_112\n      jump\t// in\n    tag_155:\n        /* \"#utility.yul\":2367:2430   */\n      swap2\n      pop\n        /* \"#utility.yul\":2323:2440   */\n      pop\n        /* \"#utility.yul\":2118:2447   */\n      swap3\n      swap2\n      pop\n      pop\n      jump\t// out\n        /* \"#utility.yul\":2453:2675   */\n    tag_25:\n        /* \"#utility.yul\":2546:2550   */\n      0x00\n        /* \"#utility.yul\":2584:2586   */\n      0x20\n        /* \"#utility.yul\":2573:2582   */\n      dup3\n        /* \"#utility.yul\":2569:2587   */\n      add\n        /* \"#utility.yul\":2561:2587   */\n      swap1\n      pop\n        /* \"#utility.yul\":2597:2668   */\n      tag_157\n        /* \"#utility.yul\":2665:2666   */\n      0x00\n        /* \"#utility.yul\":2654:2663   */\n      dup4\n        /* \"#utility.yul\":2650:2667   */\n      add\n        /* \"#utility.yul\":2641:2647   */\n      dup5\n        /* \"#utility.yul\":2597:2668   */\n      tag_109\n      jump\t// in\n    tag_157:\n        /* \"#utility.yul\":2453:2675   */\n      swap3\n      swap2\n      pop\n      pop\n      jump\t// out\n        /* \"#utility.yul\":2681:2903   */\n    tag_34:\n        /* \"#utility.yul\":2774:2778   */\n      0x00\n        /* \"#utility.yul\":2812:2814   */\n      0x20\n        /* \"#utility.yul\":2801:2810   */\n      dup3\n        /* \"#utility.yul\":2797:2815   */\n      add\n        /* \"#utility.yul\":2789:2815   */\n      swap1\n      pop\n        /* \"#utility.yul\":2825:2896   */\n      tag_159\n        /* \"#utility.yul\":2893:2894   */\n      0x00\n        /* \"#utility.yul\":2882:2891   */\n      dup4\n        /* \"#utility.yul\":2878:2895   */\n      add\n        /* \"#utility.yul\":2869:2875   */\n      dup5\n        /* \"#utility.yul\":2825:2896   */\n      tag_110\n      jump\t// in\n    tag_159:\n        /* \"#utility.yul\":2681:2903   */\n      swap3\n      swap2\n      pop\n      pop\n      jump\t// out\n        /* \"#utility.yul\":2909:3078   */\n    tag_113:\n        /* \"#utility.yul\":2993:3004   */\n      0x00\n        /* \"#utility.yul\":3027:3033   */\n      dup3\n        /* \"#utility.yul\":3022:3025   */\n      dup3\n        /* \"#utility.yul\":3015:3034   */\n      mstore\n        /* \"#utility.yul\":3067:3071   */\n      0x20\n        /* \"#utility.yul\":3062:3065   */\n      dup3\n        /* \"#utility.yul\":3058:3072   */\n      add\n        /* \"#utility.yul\":3043:3072   */\n      swap1\n      pop\n        /* \"#utility.yul\":2909:3078   */\n      swap3\n      swap2\n      pop\n      pop\n      jump\t// out\n        /* \"#utility.yul\":3084:3243   */\n    tag_114:\n        /* \"#utility.yul\":3224:3235   */\n      0x4e6f74204f776e65720000000000000000000000000000000000000000000000\n        /* \"#utility.yul\":3220:3221   */\n      0x00\n        /* \"#utility.yul\":3212:3218   */\n      dup3\n        /* \"#utility.yul\":3208:3222   */\n      add\n        /* \"#utility.yul\":3201:3236   */\n      mstore\n        /* \"#utility.yul\":3084:3243   */\n      pop\n      jump\t// out\n        /* \"#utility.yul\":3249:3614   */\n    tag_115:\n        /* \"#utility.yul\":3391:3394   */\n      0x00\n        /* \"#utility.yul\":3412:3478   */\n      tag_163\n        /* \"#utility.yul\":3476:3477   */\n      0x09\n        /* \"#utility.yul\":3471:3474   */\n      dup4\n        /* \"#utility.yul\":3412:3478   */\n      tag_113\n      jump\t// in\n    tag_163:\n        /* \"#utility.yul\":3405:3478   */\n      swap2\n      pop\n        /* \"#utility.yul\":3487:3580   */\n      tag_164\n        /* \"#utility.yul\":3576:3579   */\n      dup3\n        /* \"#utility.yul\":3487:3580   */\n      tag_114\n      jump\t// in\n    tag_164:\n        /* \"#utility.yul\":3605:3607   */\n      0x20\n        /* \"#utility.yul\":3600:3603   */\n      dup3\n        /* \"#utility.yul\":3596:3608   */\n      add\n        /* \"#utility.yul\":3589:3608   */\n      swap1\n      pop\n        /* \"#utility.yul\":3249:3614   */\n      swap2\n      swap1\n      pop\n      jump\t// out\n        /* \"#utility.yul\":3620:4039   */\n    tag_40:\n        /* \"#utility.yul\":3786:3790   */\n      0x00\n        /* \"#utility.yul\":3824:3826   */\n      0x20\n        /* \"#utility.yul\":3813:3822   */\n      dup3\n        /* \"#utility.yul\":3809:3827   */\n      add\n        /* \"#utility.yul\":3801:3827   */\n      swap1\n      pop\n        /* \"#utility.yul\":3873:3882   */\n      dup2\n        /* \"#utility.yul\":3867:3871   */\n      dup2\n        /* \"#utility.yul\":3863:3883   */\n      sub\n        /* \"#utility.yul\":3859:3860   */\n      0x00\n        /* \"#utility.yul\":3848:3857   */\n      dup4\n        /* \"#utility.yul\":3844:3861   */\n      add\n        /* \"#utility.yul\":3837:3884   */\n      mstore\n        /* \"#utility.yul\":3901:4032   */\n      tag_166\n        /* \"#utility.yul\":4027:4031   */\n      dup2\n        /* \"#utility.yul\":3901:4032   */\n      tag_115\n      jump\t// in\n    tag_166:\n        /* \"#utility.yul\":3893:4032   */\n      swap1\n      pop\n        /* \"#utility.yul\":3620:4039   */\n      swap2\n      swap1\n      pop\n      jump\t// out\n        /* \"#utility.yul\":4045:4225   */\n    tag_47:\n        /* \"#utility.yul\":4093:4170   */\n      0x4e487b7100000000000000000000000000000000000000000000000000000000\n        /* \"#utility.yul\":4090:4091   */\n      0x00\n        /* \"#utility.yul\":4083:4171   */\n      mstore\n        /* \"#utility.yul\":4190:4194   */\n      0x32\n        /* \"#utility.yul\":4187:4188   */\n      0x04\n        /* \"#utility.yul\":4180:4195   */\n      mstore\n        /* \"#utility.yul\":4214:4218   */\n      0x24\n        /* \"#utility.yul\":4211:4212   */\n      0x00\n        /* \"#utility.yul\":4204:4219   */\n      revert\n        /* \"#utility.yul\":4231:4404   */\n    tag_116:\n        /* \"#utility.yul\":4371:4396   */\n      0x43616e64696461746520416c7265616479204164646564000000000000000000\n        /* \"#utility.yul\":4367:4368   */\n      0x00\n        /* \"#utility.yul\":4359:4365   */\n      dup3\n        /* \"#utility.yul\":4355:4369   */\n      add\n        /* \"#utility.yul\":4348:4397   */\n      mstore\n        /* \"#utility.yul\":4231:4404   */\n      pop\n      jump\t// out\n        /* \"#utility.yul\":4410:4776   */\n    tag_117:\n        /* \"#utility.yul\":4552:4555   */\n      0x00\n        /* \"#utility.yul\":4573:4640   */\n      tag_170\n        /* \"#utility.yul\":4637:4639   */\n      0x17\n        /* \"#utility.yul\":4632:4635   */\n      dup4\n        /* \"#utility.yul\":4573:4640   */\n      tag_113\n      jump\t// in\n    tag_170:\n        /* \"#utility.yul\":4566:4640   */\n      swap2\n      pop\n        /* \"#utility.yul\":4649:4742   */\n      tag_171\n        /* \"#utility.yul\":4738:4741   */\n      dup3\n        /* \"#utility.yul\":4649:4742   */\n      tag_116\n      jump\t// in\n    tag_171:\n        /* \"#utility.yul\":4767:4769   */\n      0x20\n        /* \"#utility.yul\":4762:4765   */\n      dup3\n        /* \"#utility.yul\":4758:4770   */\n      add\n        /* \"#utility.yul\":4751:4770   */\n      swap1\n      pop\n        /* \"#utility.yul\":4410:4776   */\n      swap2\n      swap1\n      pop\n      jump\t// out\n        /* \"#utility.yul\":4782:5201   */\n    tag_52:\n        /* \"#utility.yul\":4948:4952   */\n      0x00\n        /* \"#utility.yul\":4986:4988   */\n      0x20\n        /* \"#utility.yul\":4975:4984   */\n      dup3\n        /* \"#utility.yul\":4971:4989   */\n      add\n        /* \"#utility.yul\":4963:4989   */\n      swap1\n      pop\n        /* \"#utility.yul\":5035:5044   */\n      dup2\n        /* \"#utility.yul\":5029:5033   */\n      dup2\n        /* \"#utility.yul\":5025:5045   */\n      sub\n        /* \"#utility.yul\":5021:5022   */\n      0x00\n        /* \"#utility.yul\":5010:5019   */\n      dup4\n        /* \"#utility.yul\":5006:5023   */\n      add\n        /* \"#utility.yul\":4999:5046   */\n      mstore\n        /* \"#utility.yul\":5063:5194   */\n      tag_173\n        /* \"#utility.yul\":5189:5193   */\n      dup2\n        /* \"#utility.yul\":5063:5194   */\n      tag_117\n      jump\t// in\n    tag_173:\n        /* \"#utility.yul\":5055:5194   */\n      swap1\n      pop\n        /* \"#utility.yul\":4782:5201   */\n      swap2\n      swap1\n      pop\n      jump\t// out\n        /* \"#utility.yul\":5207:5427   */\n    tag_118:\n        /* \"#utility.yul\":5347:5381   */\n      0x596f75206861766520616c726561647920676976656e20796f757220766f7465\n        /* \"#utility.yul\":5343:5344   */\n      0x00\n        /* \"#utility.yul\":5335:5341   */\n      dup3\n        /* \"#utility.yul\":5331:5345   */\n      add\n        /* \"#utility.yul\":5324:5382   */\n      mstore\n        /* \"#utility.yul\":5416:5419   */\n      0x2e00000000000000000000000000000000000000000000000000000000000000\n        /* \"#utility.yul\":5411:5413   */\n      0x20\n        /* \"#utility.yul\":5403:5409   */\n      dup3\n        /* \"#utility.yul\":5399:5414   */\n      add\n        /* \"#utility.yul\":5392:5420   */\n      mstore\n        /* \"#utility.yul\":5207:5427   */\n      pop\n      jump\t// out\n        /* \"#utility.yul\":5433:5799   */\n    tag_119:\n        /* \"#utility.yul\":5575:5578   */\n      0x00\n        /* \"#utility.yul\":5596:5663   */\n      tag_176\n        /* \"#utility.yul\":5660:5662   */\n      0x21\n        /* \"#utility.yul\":5655:5658   */\n      dup4\n        /* \"#utility.yul\":5596:5663   */\n      tag_113\n      jump\t// in\n    tag_176:\n        /* \"#utility.yul\":5589:5663   */\n      swap2\n      pop\n        /* \"#utility.yul\":5672:5765   */\n      tag_177\n        /* \"#utility.yul\":5761:5764   */\n      dup3\n        /* \"#utility.yul\":5672:5765   */\n      tag_118\n      jump\t// in\n    tag_177:\n        /* \"#utility.yul\":5790:5792   */\n      0x40\n        /* \"#utility.yul\":5785:5788   */\n      dup3\n        /* \"#utility.yul\":5781:5793   */\n      add\n        /* \"#utility.yul\":5774:5793   */\n      swap1\n      pop\n        /* \"#utility.yul\":5433:5799   */\n      swap2\n      swap1\n      pop\n      jump\t// out\n        /* \"#utility.yul\":5805:6224   */\n    tag_65:\n        /* \"#utility.yul\":5971:5975   */\n      0x00\n        /* \"#utility.yul\":6009:6011   */\n      0x20\n        /* \"#utility.yul\":5998:6007   */\n      dup3\n        /* \"#utility.yul\":5994:6012   */\n      add\n        /* \"#utility.yul\":5986:6012   */\n      swap1\n      pop\n        /* \"#utility.yul\":6058:6067   */\n      dup2\n        /* \"#utility.yul\":6052:6056   */\n      dup2\n        /* \"#utility.yul\":6048:6068   */\n      sub\n        /* \"#utility.yul\":6044:6045   */\n      0x00\n        /* \"#utility.yul\":6033:6042   */\n      dup4\n        /* \"#utility.yul\":6029:6046   */\n      add\n        /* \"#utility.yul\":6022:6069   */\n      mstore\n        /* \"#utility.yul\":6086:6217   */\n      tag_179\n        /* \"#utility.yul\":6212:6216   */\n      dup2\n        /* \"#utility.yul\":6086:6217   */\n      tag_119\n      jump\t// in\n    tag_179:\n        /* \"#utility.yul\":6078:6217   */\n      swap1\n      pop\n        /* \"#utility.yul\":5805:6224   */\n      swap2\n      swap1\n      pop\n      jump\t// out\n        /* \"#utility.yul\":6230:6410   */\n    tag_120:\n        /* \"#utility.yul\":6278:6355   */\n      0x4e487b7100000000000000000000000000000000000000000000000000000000\n        /* \"#utility.yul\":6275:6276   */\n      0x00\n        /* \"#utility.yul\":6268:6356   */\n      mstore\n        /* \"#utility.yul\":6375:6379   */\n      0x11\n        /* \"#utility.yul\":6372:6373   */\n      0x04\n        /* \"#utility.yul\":6365:6380   */\n      mstore\n        /* \"#utility.yul\":6399:6403   */\n      0x24\n        /* \"#utility.yul\":6396:6397   */\n      0x00\n        /* \"#utility.yul\":6389:6404   */\n      revert\n        /* \"#utility.yul\":6416:6607   */\n    tag_78:\n        /* \"#utility.yul\":6456:6459   */\n      0x00\n        /* \"#utility.yul\":6475:6495   */\n      tag_182\n        /* \"#utility.yul\":6493:6494   */\n      dup3\n        /* \"#utility.yul\":6475:6495   */\n      tag_104\n      jump\t// in\n    tag_182:\n        /* \"#utility.yul\":6470:6495   */\n      swap2\n      pop\n        /* \"#utility.yul\":6509:6529   */\n      tag_183\n        /* \"#utility.yul\":6527:6528   */\n      dup4\n        /* \"#utility.yul\":6509:6529   */\n      tag_104\n      jump\t// in\n    tag_183:\n        /* \"#utility.yul\":6504:6529   */\n      swap3\n      pop\n        /* \"#utility.yul\":6552:6553   */\n      dup3\n        /* \"#utility.yul\":6549:6550   */\n      dup3\n        /* \"#utility.yul\":6545:6554   */\n      add\n        /* \"#utility.yul\":6538:6554   */\n      swap1\n      pop\n        /* \"#utility.yul\":6573:6576   */\n      dup1\n        /* \"#utility.yul\":6570:6571   */\n      dup3\n        /* \"#utility.yul\":6567:6577   */\n      gt\n        /* \"#utility.yul\":6564:6600   */\n      iszero\n      tag_184\n      jumpi\n        /* \"#utility.yul\":6580:6598   */\n      tag_185\n      tag_120\n      jump\t// in\n    tag_185:\n        /* \"#utility.yul\":6564:6600   */\n    tag_184:\n        /* \"#utility.yul\":6416:6607   */\n      swap3\n      swap2\n      pop\n      pop\n      jump\t// out\n        /* \"#utility.yul\":6613:6783   */\n    tag_121:\n        /* \"#utility.yul\":6753:6775   */\n      0x43616e646964617465206e6f7420666f756e6421000000000000000000000000\n        /* \"#utility.yul\":6749:6750   */\n      0x00\n        /* \"#utility.yul\":6741:6747   */\n      dup3\n        /* \"#utility.yul\":6737:6751   */\n      add\n        /* \"#utility.yul\":6730:6776   */\n      mstore\n        /* \"#utility.yul\":6613:6783   */\n      pop\n      jump\t// out\n        /* \"#utility.yul\":6789:7155   */\n    tag_122:\n        /* \"#utility.yul\":6931:6934   */\n      0x00\n        /* \"#utility.yul\":6952:7019   */\n      tag_188\n        /* \"#utility.yul\":7016:7018   */\n      0x14\n        /* \"#utility.yul\":7011:7014   */\n      dup4\n        /* \"#utility.yul\":6952:7019   */\n      tag_113\n      jump\t// in\n    tag_188:\n        /* \"#utility.yul\":6945:7019   */\n      swap2\n      pop\n        /* \"#utility.yul\":7028:7121   */\n      tag_189\n        /* \"#utility.yul\":7117:7120   */\n      dup3\n        /* \"#utility.yul\":7028:7121   */\n      tag_121\n      jump\t// in\n    tag_189:\n        /* \"#utility.yul\":7146:7148   */\n      0x20\n        /* \"#utility.yul\":7141:7144   */\n      dup3\n        /* \"#utility.yul\":7137:7149   */\n      add\n        /* \"#utility.yul\":7130:7149   */\n      swap1\n      pop\n        /* \"#utility.yul\":6789:7155   */\n      swap2\n      swap1\n      pop\n      jump\t// out\n        /* \"#utility.yul\":7161:7580   */\n    tag_81:\n        /* \"#utility.yul\":7327:7331   */\n      0x00\n        /* \"#utility.yul\":7365:7367   */\n      0x20\n        /* \"#utility.yul\":7354:7363   */\n      dup3\n        /* \"#utility.yul\":7350:7368   */\n      add\n        /* \"#utility.yul\":7342:7368   */\n      swap1\n      pop\n        /* \"#utility.yul\":7414:7423   */\n      dup2\n        /* \"#utility.yul\":7408:7412   */\n      dup2\n        /* \"#utility.yul\":7404:7424   */\n      sub\n        /* \"#utility.yul\":7400:7401   */\n      0x00\n        /* \"#utility.yul\":7389:7398   */\n      dup4\n        /* \"#utility.yul\":7385:7402   */\n      add\n        /* \"#utility.yul\":7378:7425   */\n      mstore\n        /* \"#utility.yul\":7442:7573   */\n      tag_191\n        /* \"#utility.yul\":7568:7572   */\n      dup2\n        /* \"#utility.yul\":7442:7573   */\n      tag_122\n      jump\t// in\n    tag_191:\n        /* \"#utility.yul\":7434:7573   */\n      swap1\n      pop\n        /* \"#utility.yul\":7161:7580   */\n      swap2\n      swap1\n      pop\n      jump\t// out\n\n    auxdata: 0xa2646970667358221220cf02f48d4e72d3d7f9da6c6e239b1dede922dfdcba4089d61e6531acaadd23fd64736f6c634300081c0033\n}\n",
				"bytecode": {
					"linkReferences": {},
					"object": "6080604052348015600e575f5ffd5b50335f5f6101000a81548173ffffffffffffffffffffffffffffffffffffffff021916908373ffffffffffffffffffffffffffffffffffffffff160217905550610bff8061005b5f395ff3fe608060405234801561000f575f5ffd5b5060043610610060575f3560e01c80633477ee2e146100645780633acd75f8146100955780636dd7d8ea146100b15780638da5cb5b146100cd578063da58c7d9146100eb578063e652f4cc1461011b575b5f5ffd5b61007e6004803603810190610079919061083f565b61014b565b60405161008c9291906108b8565b60405180910390f35b6100af60048036038101906100aa9190610909565b610199565b005b6100cb60048036038101906100c69190610909565b6103b2565b005b6100d561060d565b6040516100e29190610934565b60405180910390f35b6101056004803603810190610100919061083f565b610631565b6040516101129190610934565b60405180910390f35b61013560048036038101906101309190610909565b61066c565b604051610142919061094d565b60405180910390f35b6001818154811061015a575f80fd5b905f5260205f2090600202015f91509050805f015f9054906101000a900473ffffffffffffffffffffffffffffffffffffffff16908060010154905082565b5f5f9054906101000a900473ffffffffffffffffffffffffffffffffffffffff1673ffffffffffffffffffffffffffffffffffffffff163373ffffffffffffffffffffffffffffffffffffffff1614610227576040517f08c379a000000000000000000000000000000000000000000000000000000000815260040161021e906109c0565b60405180910390fd5b805f5f90505f5f90505b6001805490508110156102c8578273ffffffffffffffffffffffffffffffffffffffff1660018281548110610269576102686109de565b5b905f5260205f2090600202015f015f9054906101000a900473ffffffffffffffffffffffffffffffffffffffff1673ffffffffffffffffffffffffffffffffffffffff16036102bb57600191506102c8565b8080600101915050610231565b50801561030a576040517f08c379a000000000000000000000000000000000000000000000000000000000815260040161030190610a55565b60405180910390fd5b600160405180604001604052808573ffffffffffffffffffffffffffffffffffffffff1681526020015f815250908060018154018082558091505060019003905f5260205f2090600202015f909190919091505f820151815f015f6101000a81548173ffffffffffffffffffffffffffffffffffffffff021916908373ffffffffffffffffffffffffffffffffffffffff160217905550602082015181600101555050505050565b5f5f90505f5f90505b60028054905081101561044c573373ffffffffffffffffffffffffffffffffffffffff16600282815481106103f3576103f26109de565b5b905f5260205f20015f9054906101000a900473ffffffffffffffffffffffffffffffffffffffff1673ffffffffffffffffffffffffffffffffffffffff160361043f576001915061044c565b80806001019150506103bb565b50801561048e576040517f08c379a000000000000000000000000000000000000000000000000000000000815260040161048590610ae3565b60405180910390fd5b5f5f90505f5f90505b600180549050811015610567578373ffffffffffffffffffffffffffffffffffffffff16600182815481106104cf576104ce6109de565b5b905f5260205f2090600202015f015f9054906101000a900473ffffffffffffffffffffffffffffffffffffffff1673ffffffffffffffffffffffffffffffffffffffff160361055a57600180828154811061052d5761052c6109de565b5b905f5260205f2090600202016001015f82825461054a9190610b2e565b9250508190555060019150610567565b8080600101915050610497565b50806105a8576040517f08c379a000000000000000000000000000000000000000000000000000000000815260040161059f90610bab565b60405180910390fd5b600233908060018154018082558091505060019003905f5260205f20015f9091909190916101000a81548173ffffffffffffffffffffffffffffffffffffffff021916908373ffffffffffffffffffffffffffffffffffffffff160217905550505050565b5f5f9054906101000a900473ffffffffffffffffffffffffffffffffffffffff1681565b60028181548110610640575f80fd5b905f5260205f20015f915054906101000a900473ffffffffffffffffffffffffffffffffffffffff1681565b5f5f5f9054906101000a900473ffffffffffffffffffffffffffffffffffffffff1673ffffffffffffffffffffffffffffffffffffffff163373ffffffffffffffffffffffffffffffffffffffff16146106fb576040517f08c379a00000000000000000000000000000000000000000000000000000000081526004016106f2906109c0565b60405180910390fd5b5f5f90505f5f90505b6001805490508110156107c1578373ffffffffffffffffffffffffffffffffffffffff166001828154811061073c5761073b6109de565b5b905f5260205f2090600202015f015f9054906101000a900473ffffffffffffffffffffffffffffffffffffffff1673ffffffffffffffffffffffffffffffffffffffff16036107b45760018181548110610799576107986109de565b5b905f5260205f209060020201600101549250600191506107c1565b8080600101915050610704565b5080610802576040517f08c379a00000000000000000000000000000000000000000000000000000000081526004016107f990610bab565b60405180910390fd5b50919050565b5f5ffd5b5f819050919050565b61081e8161080c565b8114610828575f5ffd5b50565b5f8135905061083981610815565b92915050565b5f6020828403121561085457610853610808565b5b5f6108618482850161082b565b91505092915050565b5f73ffffffffffffffffffffffffffffffffffffffff82169050919050565b5f6108938261086a565b9050919050565b6108a381610889565b82525050565b6108b28161080c565b82525050565b5f6040820190506108cb5f83018561089a565b6108d860208301846108a9565b9392505050565b6108e881610889565b81146108f2575f5ffd5b50565b5f81359050610903816108df565b92915050565b5f6020828403121561091e5761091d610808565b5b5f61092b848285016108f5565b91505092915050565b5f6020820190506109475f83018461089a565b92915050565b5f6020820190506109605f8301846108a9565b92915050565b5f82825260208201905092915050565b7f4e6f74204f776e657200000000000000000000000000000000000000000000005f82015250565b5f6109aa600983610966565b91506109b582610976565b602082019050919050565b5f6020820190508181035f8301526109d78161099e565b9050919050565b7f4e487b71000000000000000000000000000000000000000000000000000000005f52603260045260245ffd5b7f43616e64696461746520416c72656164792041646465640000000000000000005f82015250565b5f610a3f601783610966565b9150610a4a82610a0b565b602082019050919050565b5f6020820190508181035f830152610a6c81610a33565b9050919050565b7f596f75206861766520616c726561647920676976656e20796f757220766f74655f8201527f2e00000000000000000000000000000000000000000000000000000000000000602082015250565b5f610acd602183610966565b9150610ad882610a73565b604082019050919050565b5f6020820190508181035f830152610afa81610ac1565b9050919050565b7f4e487b71000000000000000000000000000000000000000000000000000000005f52601160045260245ffd5b5f610b388261080c565b9150610b438361080c565b9250828201905080821115610b5b57610b5a610b01565b5b92915050565b7f43616e646964617465206e6f7420666f756e64210000000000000000000000005f82015250565b5f610b95601483610966565b9150610ba082610b61565b602082019050919050565b5f6020820190508181035f830152610bc281610b89565b905091905056fea2646970667358221220cf02f48d4e72d3d7f9da6c6e239b1dede922dfdcba4089d61e6531acaadd23fd64736f6c634300081c0033",
					"opcodes": "PUSH1 0x80 PUSH1 0x40 MSTORE CALLVALUE DUP1 ISZERO PUSH1 0xE JUMPI PUSH0 PUSH0 REVERT JUMPDEST POP CALLER PUSH0 PUSH0 PUSH2 0x100 EXP DUP2 SLOAD DUP2 PUSH20 0xFFFFFFFFFFFFFFFFFFFFFFFFFFFFFFFFFFFFFFFF MUL NOT AND SWAP1 DUP4 PUSH20 0xFFFFFFFFFFFFFFFFFFFFFFFFFFFFFFFFFFFFFFFF AND MUL OR SWAP1 SSTORE POP PUSH2 0xBFF DUP1 PUSH2 0x5B PUSH0 CODECOPY PUSH0 RETURN INVALID PUSH1 0x80 PUSH1 0x40 MSTORE CALLVALUE DUP1 ISZERO PUSH2 0xF JUMPI PUSH0 PUSH0 REVERT JUMPDEST POP PUSH1 0x4 CALLDATASIZE LT PUSH2 0x60 JUMPI PUSH0 CALLDATALOAD PUSH1 0xE0 SHR DUP1 PUSH4 0x3477EE2E EQ PUSH2 0x64 JUMPI DUP1 PUSH4 0x3ACD75F8 EQ PUSH2 0x95 JUMPI DUP1 PUSH4 0x6DD7D8EA EQ PUSH2 0xB1 JUMPI DUP1 PUSH4 0x8DA5CB5B EQ PUSH2 0xCD JUMPI DUP1 PUSH4 0xDA58C7D9 EQ PUSH2 0xEB JUMPI DUP1 PUSH4 0xE652F4CC EQ PUSH2 0x11B JUMPI JUMPDEST PUSH0 PUSH0 REVERT JUMPDEST PUSH2 0x7E PUSH1 0x4 DUP1 CALLDATASIZE SUB DUP2 ADD SWAP1 PUSH2 0x79 SWAP2 SWAP1 PUSH2 0x83F JUMP JUMPDEST PUSH2 0x14B JUMP JUMPDEST PUSH1 0x40 MLOAD PUSH2 0x8C SWAP3 SWAP2 SWAP1 PUSH2 0x8B8 JUMP JUMPDEST PUSH1 0x40 MLOAD DUP1 SWAP2 SUB SWAP1 RETURN JUMPDEST PUSH2 0xAF PUSH1 0x4 DUP1 CALLDATASIZE SUB DUP2 ADD SWAP1 PUSH2 0xAA SWAP2 SWAP1 PUSH2 0x909 JUMP JUMPDEST PUSH2 0x199 JUMP JUMPDEST STOP JUMPDEST PUSH2 0xCB PUSH1 0x4 DUP1 CALLDATASIZE SUB DUP2 ADD SWAP1 PUSH2 0xC6 SWAP2 SWAP1 PUSH2 0x909 JUMP JUMPDEST PUSH2 0x3B2 JUMP JUMPDEST STOP JUMPDEST PUSH2 0xD5 PUSH2 0x60D JUMP JUMPDEST PUSH1 0x40 MLOAD PUSH2 0xE2 SWAP2 SWAP1 PUSH2 0x934 JUMP JUMPDEST PUSH1 0x40 MLOAD DUP1 SWAP2 SUB SWAP1 RETURN JUMPDEST PUSH2 0x105 PUSH1 0x4 DUP1 CALLDATASIZE SUB DUP2 ADD SWAP1 PUSH2 0x100 SWAP2 SWAP1 PUSH2 0x83F JUMP JUMPDEST PUSH2 0x631 JUMP JUMPDEST PUSH1 0x40 MLOAD PUSH2 0x112 SWAP2 SWAP1 PUSH2 0x934 JUMP JUMPDEST PUSH1 0x40 MLOAD DUP1 SWAP2 SUB SWAP1 RETURN JUMPDEST PUSH2 0x135 PUSH1 0x4 DUP1 CALLDATASIZE SUB DUP2 ADD SWAP1 PUSH2 0x130 SWAP2 SWAP1 PUSH2 0x909 JUMP JUMPDEST PUSH2 0x66C JUMP JUMPDEST PUSH1 0x40 MLOAD PUSH2 0x142 SWAP2 SWAP1 PUSH2 0x94D JUMP JUMPDEST PUSH1 0x40 MLOAD DUP1 SWAP2 SUB SWAP1 RETURN JUMPDEST PUSH1 0x1 DUP2 DUP2 SLOAD DUP2 LT PUSH2 0x15A JUMPI PUSH0 DUP1 REVERT JUMPDEST SWAP1 PUSH0 MSTORE PUSH1 0x20 PUSH0 KECCAK256 SWAP1 PUSH1 0x2 MUL ADD PUSH0 SWAP2 POP SWAP1 POP DUP1 PUSH0 ADD PUSH0 SWAP1 SLOAD SWAP1 PUSH2 0x100 EXP SWAP1 DIV PUSH20 0xFFFFFFFFFFFFFFFFFFFFFFFFFFFFFFFFFFFFFFFF AND SWAP1 DUP1 PUSH1 0x1 ADD SLOAD SWAP1 POP DUP3 JUMP JUMPDEST PUSH0 PUSH0 SWAP1 SLOAD SWAP1 PUSH2 0x100 EXP SWAP1 DIV PUSH20 0xFFFFFFFFFFFFFFFFFFFFFFFFFFFFFFFFFFFFFFFF AND PUSH20 0xFFFFFFFFFFFFFFFFFFFFFFFFFFFFFFFFFFFFFFFF AND CALLER PUSH20 0xFFFFFFFFFFFFFFFFFFFFFFFFFFFFFFFFFFFFFFFF AND EQ PUSH2 0x227 JUMPI PUSH1 0x40 MLOAD PUSH32 0x8C379A000000000000000000000000000000000000000000000000000000000 DUP2 MSTORE PUSH1 0x4 ADD PUSH2 0x21E SWAP1 PUSH2 0x9C0 JUMP JUMPDEST PUSH1 0x40 MLOAD DUP1 SWAP2 SUB SWAP1 REVERT JUMPDEST DUP1 PUSH0 PUSH0 SWAP1 POP PUSH0 PUSH0 SWAP1 POP JUMPDEST PUSH1 0x1 DUP1 SLOAD SWAP1 POP DUP2 LT ISZERO PUSH2 0x2C8 JUMPI DUP3 PUSH20 0xFFFFFFFFFFFFFFFFFFFFFFFFFFFFFFFFFFFFFFFF AND PUSH1 0x1 DUP3 DUP2 SLOAD DUP2 LT PUSH2 0x269 JUMPI PUSH2 0x268 PUSH2 0x9DE JUMP JUMPDEST JUMPDEST SWAP1 PUSH0 MSTORE PUSH1 0x20 PUSH0 KECCAK256 SWAP1 PUSH1 0x2 MUL ADD PUSH0 ADD PUSH0 SWAP1 SLOAD SWAP1 PUSH2 0x100 EXP SWAP1 DIV PUSH20 0xFFFFFFFFFFFFFFFFFFFFFFFFFFFFFFFFFFFFFFFF AND PUSH20 0xFFFFFFFFFFFFFFFFFFFFFFFFFFFFFFFFFFFFFFFF AND SUB PUSH2 0x2BB JUMPI PUSH1 0x1 SWAP2 POP PUSH2 0x2C8 JUMP JUMPDEST DUP1 DUP1 PUSH1 0x1 ADD SWAP2 POP POP PUSH2 0x231 JUMP JUMPDEST POP DUP1 ISZERO PUSH2 0x30A JUMPI PUSH1 0x40 MLOAD PUSH32 0x8C379A000000000000000000000000000000000000000000000000000000000 DUP2 MSTORE PUSH1 0x4 ADD PUSH2 0x301 SWAP1 PUSH2 0xA55 JUMP JUMPDEST PUSH1 0x40 MLOAD DUP1 SWAP2 SUB SWAP1 REVERT JUMPDEST PUSH1 0x1 PUSH1 0x40 MLOAD DUP1 PUSH1 0x40 ADD PUSH1 0x40 MSTORE DUP1 DUP6 PUSH20 0xFFFFFFFFFFFFFFFFFFFFFFFFFFFFFFFFFFFFFFFF AND DUP2 MSTORE PUSH1 0x20 ADD PUSH0 DUP2 MSTORE POP SWAP1 DUP1 PUSH1 0x1 DUP2 SLOAD ADD DUP1 DUP3 SSTORE DUP1 SWAP2 POP POP PUSH1 0x1 SWAP1 SUB SWAP1 PUSH0 MSTORE PUSH1 0x20 PUSH0 KECCAK256 SWAP1 PUSH1 0x2 MUL ADD PUSH0 SWAP1 SWAP2 SWAP1 SWAP2 SWAP1 SWAP2 POP PUSH0 DUP3 ADD MLOAD DUP2 PUSH0 ADD PUSH0 PUSH2 0x100 EXP DUP2 SLOAD DUP2 PUSH20 0xFFFFFFFFFFFFFFFFFFFFFFFFFFFFFFFFFFFFFFFF MUL NOT AND SWAP1 DUP4 PUSH20 0xFFFFFFFFFFFFFFFFFFFFFFFFFFFFFFFFFFFFFFFF AND MUL OR SWAP1 SSTORE POP PUSH1 0x20 DUP3 ADD MLOAD DUP2 PUSH1 0x1 ADD SSTORE POP POP POP POP POP JUMP JUMPDEST PUSH0 PUSH0 SWAP1 POP PUSH0 PUSH0 SWAP1 POP JUMPDEST PUSH1 0x2 DUP1 SLOAD SWAP1 POP DUP2 LT ISZERO PUSH2 0x44C JUMPI CALLER PUSH20 0xFFFFFFFFFFFFFFFFFFFFFFFFFFFFFFFFFFFFFFFF AND PUSH1 0x2 DUP3 DUP2 SLOAD DUP2 LT PUSH2 0x3F3 JUMPI PUSH2 0x3F2 PUSH2 0x9DE JUMP JUMPDEST JUMPDEST SWAP1 PUSH0 MSTORE PUSH1 0x20 PUSH0 KECCAK256 ADD PUSH0 SWAP1 SLOAD SWAP1 PUSH2 0x100 EXP SWAP1 DIV PUSH20 0xFFFFFFFFFFFFFFFFFFFFFFFFFFFFFFFFFFFFFFFF AND PUSH20 0xFFFFFFFFFFFFFFFFFFFFFFFFFFFFFFFFFFFFFFFF AND SUB PUSH2 0x43F JUMPI PUSH1 0x1 SWAP2 POP PUSH2 0x44C JUMP JUMPDEST DUP1 DUP1 PUSH1 0x1 ADD SWAP2 POP POP PUSH2 0x3BB JUMP JUMPDEST POP DUP1 ISZERO PUSH2 0x48E JUMPI PUSH1 0x40 MLOAD PUSH32 0x8C379A000000000000000000000000000000000000000000000000000000000 DUP2 MSTORE PUSH1 0x4 ADD PUSH2 0x485 SWAP1 PUSH2 0xAE3 JUMP JUMPDEST PUSH1 0x40 MLOAD DUP1 SWAP2 SUB SWAP1 REVERT JUMPDEST PUSH0 PUSH0 SWAP1 POP PUSH0 PUSH0 SWAP1 POP JUMPDEST PUSH1 0x1 DUP1 SLOAD SWAP1 POP DUP2 LT ISZERO PUSH2 0x567 JUMPI DUP4 PUSH20 0xFFFFFFFFFFFFFFFFFFFFFFFFFFFFFFFFFFFFFFFF AND PUSH1 0x1 DUP3 DUP2 SLOAD DUP2 LT PUSH2 0x4CF JUMPI PUSH2 0x4CE PUSH2 0x9DE JUMP JUMPDEST JUMPDEST SWAP1 PUSH0 MSTORE PUSH1 0x20 PUSH0 KECCAK256 SWAP1 PUSH1 0x2 MUL ADD PUSH0 ADD PUSH0 SWAP1 SLOAD SWAP1 PUSH2 0x100 EXP SWAP1 DIV PUSH20 0xFFFFFFFFFFFFFFFFFFFFFFFFFFFFFFFFFFFFFFFF AND PUSH20 0xFFFFFFFFFFFFFFFFFFFFFFFFFFFFFFFFFFFFFFFF AND SUB PUSH2 0x55A JUMPI PUSH1 0x1 DUP1 DUP3 DUP2 SLOAD DUP2 LT PUSH2 0x52D JUMPI PUSH2 0x52C PUSH2 0x9DE JUMP JUMPDEST JUMPDEST SWAP1 PUSH0 MSTORE PUSH1 0x20 PUSH0 KECCAK256 SWAP1 PUSH1 0x2 MUL ADD PUSH1 0x1 ADD PUSH0 DUP3 DUP3 SLOAD PUSH2 0x54A SWAP2 SWAP1 PUSH2 0xB2E JUMP JUMPDEST SWAP3 POP POP DUP2 SWAP1 SSTORE POP PUSH1 0x1 SWAP2 POP PUSH2 0x567 JUMP JUMPDEST DUP1 DUP1 PUSH1 0x1 ADD SWAP2 POP POP PUSH2 0x497 JUMP JUMPDEST POP DUP1 PUSH2 0x5A8 JUMPI PUSH1 0x40 MLOAD PUSH32 0x8C379A000000000000000000000000000000000000000000000000000000000 DUP2 MSTORE PUSH1 0x4 ADD PUSH2 0x59F SWAP1 PUSH2 0xBAB JUMP JUMPDEST PUSH1 0x40 MLOAD DUP1 SWAP2 SUB SWAP1 REVERT JUMPDEST PUSH1 0x2 CALLER SWAP1 DUP1 PUSH1 0x1 DUP2 SLOAD ADD DUP1 DUP3 SSTORE DUP1 SWAP2 POP POP PUSH1 0x1 SWAP1 SUB SWAP1 PUSH0 MSTORE PUSH1 0x20 PUSH0 KECCAK256 ADD PUSH0 SWAP1 SWAP2 SWAP1 SWAP2 SWAP1 SWAP2 PUSH2 0x100 EXP DUP2 SLOAD DUP2 PUSH20 0xFFFFFFFFFFFFFFFFFFFFFFFFFFFFFFFFFFFFFFFF MUL NOT AND SWAP1 DUP4 PUSH20 0xFFFFFFFFFFFFFFFFFFFFFFFFFFFFFFFFFFFFFFFF AND MUL OR SWAP1 SSTORE POP POP POP POP JUMP JUMPDEST PUSH0 PUSH0 SWAP1 SLOAD SWAP1 PUSH2 0x100 EXP SWAP1 DIV PUSH20 0xFFFFFFFFFFFFFFFFFFFFFFFFFFFFFFFFFFFFFFFF AND DUP2 JUMP JUMPDEST PUSH1 0x2 DUP2 DUP2 SLOAD DUP2 LT PUSH2 0x640 JUMPI PUSH0 DUP1 REVERT JUMPDEST SWAP1 PUSH0 MSTORE PUSH1 0x20 PUSH0 KECCAK256 ADD PUSH0 SWAP2 POP SLOAD SWAP1 PUSH2 0x100 EXP SWAP1 DIV PUSH20 0xFFFFFFFFFFFFFFFFFFFFFFFFFFFFFFFFFFFFFFFF AND DUP2 JUMP JUMPDEST PUSH0 PUSH0 PUSH0 SWAP1 SLOAD SWAP1 PUSH2 0x100 EXP SWAP1 DIV PUSH20 0xFFFFFFFFFFFFFFFFFFFFFFFFFFFFFFFFFFFFFFFF AND PUSH20 0xFFFFFFFFFFFFFFFFFFFFFFFFFFFFFFFFFFFFFFFF AND CALLER PUSH20 0xFFFFFFFFFFFFFFFFFFFFFFFFFFFFFFFFFFFFFFFF AND EQ PUSH2 0x6FB JUMPI PUSH1 0x40 MLOAD PUSH32 0x8C379A000000000000000000000000000000000000000000000000000000000 DUP2 MSTORE PUSH1 0x4 ADD PUSH2 0x6F2 SWAP1 PUSH2 0x9C0 JUMP JUMPDEST PUSH1 0x40 MLOAD DUP1 SWAP2 SUB SWAP1 REVERT JUMPDEST PUSH0 PUSH0 SWAP1 POP PUSH0 PUSH0 SWAP1 POP JUMPDEST PUSH1 0x1 DUP1 SLOAD SWAP1 POP DUP2 LT ISZERO PUSH2 0x7C1 JUMPI DUP4 PUSH20 0xFFFFFFFFFFFFFFFFFFFFFFFFFFFFFFFFFFFFFFFF AND PUSH1 0x1 DUP3 DUP2 SLOAD DUP2 LT PUSH2 0x73C JUMPI PUSH2 0x73B PUSH2 0x9DE JUMP JUMPDEST JUMPDEST SWAP1 PUSH0 MSTORE PUSH1 0x20 PUSH0 KECCAK256 SWAP1 PUSH1 0x2 MUL ADD PUSH0 ADD PUSH0 SWAP1 SLOAD SWAP1 PUSH2 0x100 EXP SWAP1 DIV PUSH20 0xFFFFFFFFFFFFFFFFFFFFFFFFFFFFFFFFFFFFFFFF AND PUSH20 0xFFFFFFFFFFFFFFFFFFFFFFFFFFFFFFFFFFFFFFFF AND SUB PUSH2 0x7B4 JUMPI PUSH1 0x1 DUP2 DUP2 SLOAD DUP2 LT PUSH2 0x799 JUMPI PUSH2 0x798 PUSH2 0x9DE JUMP JUMPDEST JUMPDEST SWAP1 PUSH0 MSTORE PUSH1 0x20 PUSH0 KECCAK256 SWAP1 PUSH1 0x2 MUL ADD PUSH1 0x1 ADD SLOAD SWAP3 POP PUSH1 0x1 SWAP2 POP PUSH2 0x7C1 JUMP JUMPDEST DUP1 DUP1 PUSH1 0x1 ADD SWAP2 POP POP PUSH2 0x704 JUMP JUMPDEST POP DUP1 PUSH2 0x802 JUMPI PUSH1 0x40 MLOAD PUSH32 0x8C379A000000000000000000000000000000000000000000000000000000000 DUP2 MSTORE PUSH1 0x4 ADD PUSH2 0x7F9 SWAP1 PUSH2 0xBAB JUMP JUMPDEST PUSH1 0x40 MLOAD DUP1 SWAP2 SUB SWAP1 REVERT JUMPDEST POP SWAP2 SWAP1 POP JUMP JUMPDEST PUSH0 PUSH0 REVERT JUMPDEST PUSH0 DUP2 SWAP1 POP SWAP2 SWAP1 POP JUMP JUMPDEST PUSH2 0x81E DUP2 PUSH2 0x80C JUMP JUMPDEST DUP2 EQ PUSH2 0x828 JUMPI PUSH0 PUSH0 REVERT JUMPDEST POP JUMP JUMPDEST PUSH0 DUP2 CALLDATALOAD SWAP1 POP PUSH2 0x839 DUP2 PUSH2 0x815 JUMP JUMPDEST SWAP3 SWAP2 POP POP JUMP JUMPDEST PUSH0 PUSH1 0x20 DUP3 DUP5 SUB SLT ISZERO PUSH2 0x854 JUMPI PUSH2 0x853 PUSH2 0x808 JUMP JUMPDEST JUMPDEST PUSH0 PUSH2 0x861 DUP5 DUP3 DUP6 ADD PUSH2 0x82B JUMP JUMPDEST SWAP2 POP POP SWAP3 SWAP2 POP POP JUMP JUMPDEST PUSH0 PUSH20 0xFFFFFFFFFFFFFFFFFFFFFFFFFFFFFFFFFFFFFFFF DUP3 AND SWAP1 POP SWAP2 SWAP1 POP JUMP JUMPDEST PUSH0 PUSH2 0x893 DUP3 PUSH2 0x86A JUMP JUMPDEST SWAP1 POP SWAP2 SWAP1 POP JUMP JUMPDEST PUSH2 0x8A3 DUP2 PUSH2 0x889 JUMP JUMPDEST DUP3 MSTORE POP POP JUMP JUMPDEST PUSH2 0x8B2 DUP2 PUSH2 0x80C JUMP JUMPDEST DUP3 MSTORE POP POP JUMP JUMPDEST PUSH0 PUSH1 0x40 DUP3 ADD SWAP1 POP PUSH2 0x8CB PUSH0 DUP4 ADD DUP6 PUSH2 0x89A JUMP JUMPDEST PUSH2 0x8D8 PUSH1 0x20 DUP4 ADD DUP5 PUSH2 0x8A9 JUMP JUMPDEST SWAP4 SWAP3 POP POP POP JUMP JUMPDEST PUSH2 0x8E8 DUP2 PUSH2 0x889 JUMP JUMPDEST DUP2 EQ PUSH2 0x8F2 JUMPI PUSH0 PUSH0 REVERT JUMPDEST POP JUMP JUMPDEST PUSH0 DUP2 CALLDATALOAD SWAP1 POP PUSH2 0x903 DUP2 PUSH2 0x8DF JUMP JUMPDEST SWAP3 SWAP2 POP POP JUMP JUMPDEST PUSH0 PUSH1 0x20 DUP3 DUP5 SUB SLT ISZERO PUSH2 0x91E JUMPI PUSH2 0x91D PUSH2 0x808 JUMP JUMPDEST JUMPDEST PUSH0 PUSH2 0x92B DUP5 DUP3 DUP6 ADD PUSH2 0x8F5 JUMP JUMPDEST SWAP2 POP POP SWAP3 SWAP2 POP POP JUMP JUMPDEST PUSH0 PUSH1 0x20 DUP3 ADD SWAP1 POP PUSH2 0x947 PUSH0 DUP4 ADD DUP5 PUSH2 0x89A JUMP JUMPDEST SWAP3 SWAP2 POP POP JUMP JUMPDEST PUSH0 PUSH1 0x20 DUP3 ADD SWAP1 POP PUSH2 0x960 PUSH0 DUP4 ADD DUP5 PUSH2 0x8A9 JUMP JUMPDEST SWAP3 SWAP2 POP POP JUMP JUMPDEST PUSH0 DUP3 DUP3 MSTORE PUSH1 0x20 DUP3 ADD SWAP1 POP SWAP3 SWAP2 POP POP JUMP JUMPDEST PUSH32 0x4E6F74204F776E65720000000000000000000000000000000000000000000000 PUSH0 DUP3 ADD MSTORE POP JUMP JUMPDEST PUSH0 PUSH2 0x9AA PUSH1 0x9 DUP4 PUSH2 0x966 JUMP JUMPDEST SWAP2 POP PUSH2 0x9B5 DUP3 PUSH2 0x976 JUMP JUMPDEST PUSH1 0x20 DUP3 ADD SWAP1 POP SWAP2 SWAP1 POP JUMP JUMPDEST PUSH0 PUSH1 0x20 DUP3 ADD SWAP1 POP DUP2 DUP2 SUB PUSH0 DUP4 ADD MSTORE PUSH2 0x9D7 DUP2 PUSH2 0x99E JUMP JUMPDEST SWAP1 POP SWAP2 SWAP1 POP JUMP JUMPDEST PUSH32 0x4E487B7100000000000000000000000000000000000000000000000000000000 PUSH0 MSTORE PUSH1 0x32 PUSH1 0x4 MSTORE PUSH1 0x24 PUSH0 REVERT JUMPDEST PUSH32 0x43616E64696461746520416C7265616479204164646564000000000000000000 PUSH0 DUP3 ADD MSTORE POP JUMP JUMPDEST PUSH0 PUSH2 0xA3F PUSH1 0x17 DUP4 PUSH2 0x966 JUMP JUMPDEST SWAP2 POP PUSH2 0xA4A DUP3 PUSH2 0xA0B JUMP JUMPDEST PUSH1 0x20 DUP3 ADD SWAP1 POP SWAP2 SWAP1 POP JUMP JUMPDEST PUSH0 PUSH1 0x20 DUP3 ADD SWAP1 POP DUP2 DUP2 SUB PUSH0 DUP4 ADD MSTORE PUSH2 0xA6C DUP2 PUSH2 0xA33 JUMP JUMPDEST SWAP1 POP SWAP2 SWAP1 POP JUMP JUMPDEST PUSH32 0x596F75206861766520616C726561647920676976656E20796F757220766F7465 PUSH0 DUP3 ADD MSTORE PUSH32 0x2E00000000000000000000000000000000000000000000000000000000000000 PUSH1 0x20 DUP3 ADD MSTORE POP JUMP JUMPDEST PUSH0 PUSH2 0xACD PUSH1 0x21 DUP4 PUSH2 0x966 JUMP JUMPDEST SWAP2 POP PUSH2 0xAD8 DUP3 PUSH2 0xA73 JUMP JUMPDEST PUSH1 0x40 DUP3 ADD SWAP1 POP SWAP2 SWAP1 POP JUMP JUMPDEST PUSH0 PUSH1 0x20 DUP3 ADD SWAP1 POP DUP2 DUP2 SUB PUSH0 DUP4 ADD MSTORE PUSH2 0xAFA DUP2 PUSH2 0xAC1 JUMP JUMPDEST SWAP1 POP SWAP2 SWAP1 POP JUMP JUMPDEST PUSH32 0x4E487B7100000000000000000000000000000000000000000000000000000000 PUSH0 MSTORE PUSH1 0x11 PUSH1 0x4 MSTORE PUSH1 0x24 PUSH0 REVERT JUMPDEST PUSH0 PUSH2 0xB38 DUP3 PUSH2 0x80C JUMP JUMPDEST SWAP2 POP PUSH2 0xB43 DUP4 PUSH2 0x80C JUMP JUMPDEST SWAP3 POP DUP3 DUP3 ADD SWAP1 POP DUP1 DUP3 GT ISZERO PUSH2 0xB5B JUMPI PUSH2 0xB5A PUSH2 0xB01 JUMP JUMPDEST JUMPDEST SWAP3 SWAP2 POP POP JUMP JUMPDEST PUSH32 0x43616E646964617465206E6F7420666F756E6421000000000000000000000000 PUSH0 DUP3 ADD MSTORE POP JUMP JUMPDEST PUSH0 PUSH2 0xB95 PUSH1 0x14 DUP4 PUSH2 0x966 JUMP JUMPDEST SWAP2 POP PUSH2 0xBA0 DUP3 PUSH2 0xB61 JUMP JUMPDEST PUSH1 0x20 DUP3 ADD SWAP1 POP SWAP2 SWAP1 POP JUMP JUMPDEST PUSH0 PUSH1 0x20 DUP3 ADD SWAP1 POP DUP2 DUP2 SUB PUSH0 DUP4 ADD MSTORE PUSH2 0xBC2 DUP2 PUSH2 0xB89 JUMP JUMPDEST SWAP1 POP SWAP2 SWAP1 POP JUMP INVALID LOG2 PUSH5 0x6970667358 0x22 SLT KECCAK256 0xCF MUL DELEGATECALL DUP14 0x4E PUSH19 0xD3D7F9DA6C6E239B1DEDE922DFDCBA4089D61E PUSH6 0x31ACAADD23FD PUSH5 0x736F6C6343 STOP ADDMOD SHR STOP CALLER "
				},
				"gasEstimates": {
					"creation": {
						"codeDepositCost": "614200",
						"executionCost": "24907",
						"totalCost": "639107"
					},
					"external": {
						"addCandidate(address)": "infinite",
						"candidates(uint256)": "infinite",
						"getVoteCount(address)": "infinite",
						"owner()": "2551",
						"vote(address)": "infinite",
						"voters(uint256)": "5010"
					}
				},
				"methodIdentifiers": {
					"addCandidate(address)": "3acd75f8",
					"candidates(uint256)": "3477ee2e",
					"getVoteCount(address)": "e652f4cc",
					"owner()": "8da5cb5b",
					"vote(address)": "6dd7d8ea",
					"voters(uint256)": "da58c7d9"
				}
			},
			"storageLayout": {
				"storage": [
					{
						"astId": 3,
						"contract": "contracts/votingSystem.sol:VotingSystem",
						"label": "owner",
						"offset": 0,
						"slot": "0",
						"type": "t_address"
					},
					{
						"astId": 12,
						"contract": "contracts/votingSystem.sol:VotingSystem",
						"label": "candidates",
						"offset": 0,
						"slot": "1",
						"type": "t_array(t_struct(Candidate)8_storage)dyn_storage"
					},
					{
						"astId": 15,
						"contract": "contracts/votingSystem.sol:VotingSystem",
						"label": "voters",
						"offset": 0,
						"slot": "2",
						"type": "t_array(t_address)dyn_storage"
					}
				],
				"types": {
					"t_address": {
						"encoding": "inplace",
						"label": "address",
						"numberOfBytes": "20"
					},
					"t_array(t_address)dyn_storage": {
						"base": "t_address",
						"encoding": "dynamic_array",
						"label": "address[]",
						"numberOfBytes": "32"
					},
					"t_array(t_struct(Candidate)8_storage)dyn_storage": {
						"base": "t_struct(Candidate)8_storage",
						"encoding": "dynamic_array",
						"label": "struct VotingSystem.Candidate[]",
						"numberOfBytes": "32"
					},
					"t_struct(Candidate)8_storage": {
						"encoding": "inplace",
						"label": "struct VotingSystem.Candidate",
						"members": [
							{
								"astId": 5,
								"contract": "contracts/votingSystem.sol:VotingSystem",
								"label": "candidateAddr",
								"offset": 0,
								"slot": "0",
								"type": "t_address"
							},
							{
								"astId": 7,
								"contract": "contracts/votingSystem.sol:VotingSystem",
								"label": "voteCount",
								"offset": 0,
								"slot": "1",
								"type": "t_uint256"
							}
						],
						"numberOfBytes": "64"
					},
					"t_uint256": {
						"encoding": "inplace",
						"label": "uint256",
						"numberOfBytes": "32"
					}
				}
			},
			"userdoc": {
				"kind": "user",
				"methods": {},
				"version": 1
			}
		}
	}
}